{
  "contractName": "Project",
  "abi": [
    {
      "constant": true,
      "inputs": [
        {
          "name": "",
          "type": "uint256"
        }
      ],
      "name": "contributions",
      "outputs": [
        {
          "name": "amount",
          "type": "uint256"
        },
        {
          "name": "contributor",
          "type": "address"
        }
      ],
      "payable": false,
      "stateMutability": "view",
      "type": "function"
    },
    {
      "constant": true,
      "inputs": [
        {
          "name": "",
          "type": "address"
        }
      ],
      "name": "contributors",
      "outputs": [
        {
          "name": "",
          "type": "uint256"
        }
      ],
      "payable": false,
      "stateMutability": "view",
      "type": "function"
    },
    {
      "constant": true,
      "inputs": [],
      "name": "contributionsCount",
      "outputs": [
        {
          "name": "",
          "type": "uint256"
        }
      ],
      "payable": false,
      "stateMutability": "view",
      "type": "function"
    },
    {
      "constant": true,
      "inputs": [],
      "name": "contributorsCount",
      "outputs": [
        {
          "name": "",
          "type": "uint256"
        }
      ],
      "payable": false,
      "stateMutability": "view",
      "type": "function"
    },
    {
      "constant": true,
      "inputs": [],
      "name": "fundingHub",
      "outputs": [
        {
          "name": "",
          "type": "address"
        }
      ],
      "payable": false,
      "stateMutability": "view",
      "type": "function"
    },
    {
      "constant": true,
      "inputs": [],
      "name": "properties",
      "outputs": [
        {
          "name": "goal",
          "type": "uint256"
        },
        {
          "name": "deadline",
          "type": "uint256"
        },
        {
          "name": "title",
          "type": "string"
        },
        {
          "name": "creator",
          "type": "address"
        }
      ],
      "payable": false,
      "stateMutability": "view",
      "type": "function"
    },
    {
      "constant": true,
      "inputs": [],
      "name": "totalFunding",
      "outputs": [
        {
          "name": "",
          "type": "uint256"
        }
      ],
      "payable": false,
      "stateMutability": "view",
      "type": "function"
    },
    {
      "inputs": [
        {
          "name": "_fundingGoal",
          "type": "uint256"
        },
        {
          "name": "_deadline",
          "type": "uint256"
        },
        {
          "name": "_title",
          "type": "string"
        },
        {
          "name": "_creator",
          "type": "address"
        }
      ],
      "payable": false,
      "stateMutability": "nonpayable",
      "type": "constructor"
    },
    {
      "payable": false,
      "stateMutability": "nonpayable",
      "type": "fallback"
    },
    {
      "anonymous": false,
      "inputs": [
        {
          "indexed": false,
          "name": "projectAddress",
          "type": "address"
        },
        {
          "indexed": false,
          "name": "contributor",
          "type": "address"
        },
        {
          "indexed": false,
          "name": "amount",
          "type": "uint256"
        }
      ],
      "name": "LogContributionReceived",
      "type": "event"
    },
    {
      "anonymous": false,
      "inputs": [
        {
          "indexed": false,
          "name": "projectAddress",
          "type": "address"
        },
        {
          "indexed": false,
          "name": "owner",
          "type": "address"
        },
        {
          "indexed": false,
          "name": "totalPayout",
          "type": "uint256"
        }
      ],
      "name": "LogPayoutInitiated",
      "type": "event"
    },
    {
      "anonymous": false,
      "inputs": [
        {
          "indexed": false,
          "name": "projectAddress",
          "type": "address"
        },
        {
          "indexed": false,
          "name": "contributor",
          "type": "address"
        },
        {
          "indexed": false,
          "name": "refundAmount",
          "type": "uint256"
        }
      ],
      "name": "LogRefundIssued",
      "type": "event"
    },
    {
      "anonymous": false,
      "inputs": [
        {
          "indexed": false,
          "name": "projectAddress",
          "type": "address"
        },
        {
          "indexed": false,
          "name": "totalFunding",
          "type": "uint256"
        },
        {
          "indexed": false,
          "name": "totalContributions",
          "type": "uint256"
        }
      ],
      "name": "LogFundingGoalReached",
      "type": "event"
    },
    {
      "anonymous": false,
      "inputs": [
        {
          "indexed": false,
          "name": "projectAddress",
          "type": "address"
        },
        {
          "indexed": false,
          "name": "totalFunding",
          "type": "uint256"
        },
        {
          "indexed": false,
          "name": "totalContributions",
          "type": "uint256"
        }
      ],
      "name": "LogFundingFailed",
      "type": "event"
    },
    {
      "anonymous": false,
      "inputs": [
        {
          "indexed": false,
          "name": "message",
          "type": "string"
        }
      ],
      "name": "LogFailure",
      "type": "event"
    },
    {
      "constant": false,
      "inputs": [],
      "name": "getProject",
      "outputs": [
        {
          "name": "",
          "type": "string"
        },
        {
          "name": "",
          "type": "uint256"
        },
        {
          "name": "",
          "type": "uint256"
        },
        {
          "name": "",
          "type": "address"
        },
        {
          "name": "",
          "type": "uint256"
        },
        {
          "name": "",
          "type": "uint256"
        },
        {
          "name": "",
          "type": "uint256"
        },
        {
          "name": "",
          "type": "address"
        },
        {
          "name": "",
          "type": "address"
        }
      ],
      "payable": false,
      "stateMutability": "nonpayable",
      "type": "function"
    },
    {
      "constant": false,
      "inputs": [
        {
          "name": "_id",
          "type": "uint256"
        }
      ],
      "name": "getContribution",
      "outputs": [
        {
          "name": "",
          "type": "uint256"
        },
        {
          "name": "",
          "type": "address"
        }
      ],
      "payable": false,
      "stateMutability": "nonpayable",
      "type": "function"
    },
    {
      "constant": false,
      "inputs": [
        {
          "name": "_contributor",
          "type": "address"
        }
      ],
      "name": "fund",
      "outputs": [
        {
          "name": "successful",
          "type": "bool"
        }
      ],
      "payable": true,
      "stateMutability": "payable",
      "type": "function"
    },
    {
      "constant": false,
      "inputs": [],
      "name": "payout",
      "outputs": [
        {
          "name": "successful",
          "type": "bool"
        }
      ],
      "payable": true,
      "stateMutability": "payable",
      "type": "function"
    },
    {
      "constant": false,
      "inputs": [],
      "name": "refund",
      "outputs": [
        {
          "name": "successful",
          "type": "bool"
        }
      ],
      "payable": true,
      "stateMutability": "payable",
      "type": "function"
    },
    {
      "constant": false,
      "inputs": [],
      "name": "kill",
      "outputs": [],
      "payable": false,
      "stateMutability": "nonpayable",
      "type": "function"
    }
  ],
  "bytecode": "0x606060405234156200001057600080fd5b6040516200182a3803806200182a83398101604052808051906020019091908051906020019091908051820191906020018051906020019091905050600084111515620000ea577fa2db52a45d71264723caeac03c235d51bb30cff5e1ac71c97a5842ec94fbb6af60405180806020018281038252602b8152602001807f50726f6a6563742066756e64696e6720676f616c206d7573742062652067726581526020017f61746572207468616e203000000000000000000000000000000000000000000081525060400191505060405180910390a1600080fd5b824310151562000187577fa2db52a45d71264723caeac03c235d51bb30cff5e1ac71c97a5842ec94fbb6af6040518080602001828103825260378152602001807f50726f6a65637420646561646c696e65206d757374206265206772656174657281526020017f207468616e207468652063757272656e7420626c6f636b00000000000000000081525060400191505060405180910390a1600080fd5b60008173ffffffffffffffffffffffffffffffffffffffff1614156200023a577fa2db52a45d71264723caeac03c235d51bb30cff5e1ac71c97a5842ec94fbb6af60405180806020018281038252602c8152602001807f50726f6a656374206d75737420696e636c75646520612076616c69642063726581526020017f61746f722061646472657373000000000000000000000000000000000000000081525060400191505060405180910390a1600080fd5b336000806101000a81548173ffffffffffffffffffffffffffffffffffffffff021916908373ffffffffffffffffffffffffffffffffffffffff1602179055506080604051908101604052808581526020018481526020018381526020018273ffffffffffffffffffffffffffffffffffffffff16815250600660008201518160000155602082015181600101556040820151816002019080519060200190620002e692919062000353565b5060608201518160030160006101000a81548173ffffffffffffffffffffffffffffffffffffffff021916908373ffffffffffffffffffffffffffffffffffffffff1602179055509050506000600381905550600060048190555060006005819055505050505062000402565b828054600181600116156101000203166002900490600052602060002090601f016020900481019282601f106200039657805160ff1916838001178555620003c7565b82800160010185558215620003c7579182015b82811115620003c6578251825591602001919060010190620003a9565b5b509050620003d69190620003da565b5090565b620003ff91905b80821115620003fb576000816000905550600101620003e1565b5090565b90565b61141880620004126000396000f3006060604052600436106100c5576000357c0100000000000000000000000000000000000000000000000000000000900463ffffffff1680631cee0700146100d55780631f6d49421461013f578063230244081461018c57806338658175146101d257806341c0e1b5146101fb578063590e1ae31461021057806363bd1d4a146102325780636e57b700146102545780637569b3d71461039e578063cef42254146103c7578063f9b8057f14610431578063fcd802b114610486578063fe47a8a714610555575b34156100d057600080fd5b600080fd5b34156100e057600080fd5b6100f6600480803590602001909190505061057e565b604051808381526020018273ffffffffffffffffffffffffffffffffffffffff1673ffffffffffffffffffffffffffffffffffffffff1681526020019250505060405180910390f35b341561014a57600080fd5b610176600480803573ffffffffffffffffffffffffffffffffffffffff169060200190919050506105c2565b6040518082815260200191505060405180910390f35b6101b8600480803573ffffffffffffffffffffffffffffffffffffffff169060200190919050506105da565b604051808215151515815260200191505060405180910390f35b34156101dd57600080fd5b6101e5610cb8565b6040518082815260200191505060405180910390f35b341561020657600080fd5b61020e610cbe565b005b610218610d53565b604051808215151515815260200191505060405180910390f35b61023a6110b7565b604051808215151515815260200191505060405180910390f35b341561025f57600080fd5b610267611153565b60405180806020018a81526020018981526020018873ffffffffffffffffffffffffffffffffffffffff1673ffffffffffffffffffffffffffffffffffffffff1681526020018781526020018681526020018581526020018473ffffffffffffffffffffffffffffffffffffffff1673ffffffffffffffffffffffffffffffffffffffff1681526020018373ffffffffffffffffffffffffffffffffffffffff1673ffffffffffffffffffffffffffffffffffffffff16815260200182810382528b818151815260200191508051906020019080838360005b8381101561035b578082015181840152602081019050610340565b50505050905090810190601f1680156103885780820380516001836020036101000a031916815260200191505b509a505050505050505050505060405180910390f35b34156103a957600080fd5b6103b1611283565b6040518082815260200191505060405180910390f35b34156103d257600080fd5b6103e86004808035906020019091905050611289565b604051808381526020018273ffffffffffffffffffffffffffffffffffffffff1673ffffffffffffffffffffffffffffffffffffffff1681526020019250505060405180910390f35b341561043c57600080fd5b6104446112d7565b604051808273ffffffffffffffffffffffffffffffffffffffff1673ffffffffffffffffffffffffffffffffffffffff16815260200191505060405180910390f35b341561049157600080fd5b6104996112fc565b60405180858152602001848152602001806020018373ffffffffffffffffffffffffffffffffffffffff1673ffffffffffffffffffffffffffffffffffffffff168152602001828103825284818151815260200191508051906020019080838360005b838110156105175780820151818401526020810190506104fc565b50505050905090810190601f1680156105445780820380516001836020036101000a031916815260200191505b509550505050505060405180910390f35b341561056057600080fd5b6105686113d2565b6040518082815260200191505060405180910390f35b60026020528060005260406000206000915090508060000154908060010160009054906101000a900473ffffffffffffffffffffffffffffffffffffffff16905082565b60016020528060005260406000206000915090505481565b6000806000803411151561067b577fa2db52a45d71264723caeac03c235d51bb30cff5e1ac71c97a5842ec94fbb6af6040518080602001828103825260308152602001807f46756e64696e6720636f6e747269627574696f6e73206d75737420626520677281526020017f6561746572207468616e2030207765690000000000000000000000000000000081525060400191505060405180910390a1600080fd5b6000809054906101000a900473ffffffffffffffffffffffffffffffffffffffff1673ffffffffffffffffffffffffffffffffffffffff163373ffffffffffffffffffffffffffffffffffffffff1614151561078a577fa2db52a45d71264723caeac03c235d51bb30cff5e1ac71c97a5842ec94fbb6af6040518080602001828103825260428152602001807f46756e64696e6720636f6e747269627574696f6e732063616e206f6e6c79206281526020017f65206d616465207468726f7567682046756e64696e6748756220636f6e74726181526020017f637400000000000000000000000000000000000000000000000000000000000081525060600191505060405180910390a1600080fd5b6006600101544311156108e5577f06a029cfeb9ba6076c9c728f3ac5eb2de5535c866f145b0679a2f5fb2afcae6130600354600454604051808473ffffffffffffffffffffffffffffffffffffffff1673ffffffffffffffffffffffffffffffffffffffff168152602001838152602001828152602001935050505060405180910390a18373ffffffffffffffffffffffffffffffffffffffff166108fc349081150290604051600060405180830381858888f1935050505015156108dc577fa2db52a45d71264723caeac03c235d51bb30cff5e1ac71c97a5842ec94fbb6af60405180806020018281038252603b8152602001807f50726f6a65637420646561646c696e6520686173207061737365642c2070726f81526020017f626c656d2072657475726e696e6720636f6e747269627574696f6e000000000081525060400191505060405180910390a1600080fd5b60009250610cb1565b600660000154600354101515610a4c577ff2f86ff1ec83177c1a8bfc8a746ed87b25fb731cd937a710b77139e477d2ab4230600354600454604051808473ffffffffffffffffffffffffffffffffffffffff1673ffffffffffffffffffffffffffffffffffffffff168152602001838152602001828152602001935050505060405180910390a18373ffffffffffffffffffffffffffffffffffffffff166108fc349081150290604051600060405180830381858888f193505050501515610a3a577fa2db52a45d71264723caeac03c235d51bb30cff5e1ac71c97a5842ec94fbb6af60405180806020018281038252603b8152602001807f50726f6a65637420646561646c696e6520686173207061737365642c2070726f81526020017f626c656d2072657475726e696e6720636f6e747269627574696f6e000000000081525060400191505060405180910390a1600080fd5b610a426110b7565b5060009250610cb1565b600160008573ffffffffffffffffffffffffffffffffffffffff1673ffffffffffffffffffffffffffffffffffffffff1681526020019081526020016000205491506002600060045481526020019081526020016000209050838160010160006101000a81548173ffffffffffffffffffffffffffffffffffffffff021916908373ffffffffffffffffffffffffffffffffffffffff16021790555034816000018190555034600160008673ffffffffffffffffffffffffffffffffffffffff1673ffffffffffffffffffffffffffffffffffffffff16815260200190815260200160002060008282540192505081905550346003600082825401925050819055506004600081548092919060010191905055506000821415610b7c576005600081548092919060010191905055505b7f1613ab8aabab6179e17fac6982185658b18ef4166931650cf8a2d5ed1a987aeb308534604051808473ffffffffffffffffffffffffffffffffffffffff1673ffffffffffffffffffffffffffffffffffffffff1681526020018373ffffffffffffffffffffffffffffffffffffffff1673ffffffffffffffffffffffffffffffffffffffff168152602001828152602001935050505060405180910390a1600660000154600354101515610cac577ff2f86ff1ec83177c1a8bfc8a746ed87b25fb731cd937a710b77139e477d2ab4230600354600454604051808473ffffffffffffffffffffffffffffffffffffffff1673ffffffffffffffffffffffffffffffffffffffff168152602001838152602001828152602001935050505060405180910390a1610caa6110b7565b505b600192505b5050919050565b60045481565b3373ffffffffffffffffffffffffffffffffffffffff166000809054906101000a900473ffffffffffffffffffffffffffffffffffffffff1673ffffffffffffffffffffffffffffffffffffffff16141515610d1957600080fd5b6000809054906101000a900473ffffffffffffffffffffffffffffffffffffffff1673ffffffffffffffffffffffffffffffffffffffff16ff5b600080600660010154431015610df6577fa2db52a45d71264723caeac03c235d51bb30cff5e1ac71c97a5842ec94fbb6af6040518080602001828103825260338152602001807f526566756e64206973206f6e6c7920706f737369626c652069662070726f6a6581526020017f6374206973207061737420646561646c696e650000000000000000000000000081525060400191505060405180910390a1600080fd5b600660000154600354101515610e99577fa2db52a45d71264723caeac03c235d51bb30cff5e1ac71c97a5842ec94fbb6af60405180806020018281038252602e8152602001807f526566756e64206973206e6f7420706f737369626c652069662070726f6a656381526020017f7420686173206d657420676f616c00000000000000000000000000000000000081525060400191505060405180910390a1600080fd5b600160003373ffffffffffffffffffffffffffffffffffffffff1673ffffffffffffffffffffffffffffffffffffffff1681526020019081526020016000205490506000600160003373ffffffffffffffffffffffffffffffffffffffff1673ffffffffffffffffffffffffffffffffffffffff168152602001908152602001600020819055503373ffffffffffffffffffffffffffffffffffffffff166108fc829081150290604051600060405180830381858888f1935050505015611002577f5912b7ad61865e7a6d5dcaa41e58e9563c7e286fc42999b67e1773e6b76e322d303383604051808473ffffffffffffffffffffffffffffffffffffffff1673ffffffffffffffffffffffffffffffffffffffff1681526020018373ffffffffffffffffffffffffffffffffffffffff1673ffffffffffffffffffffffffffffffffffffffff168152602001828152602001935050505060405180910390a1600191506110b3565b80600160003373ffffffffffffffffffffffffffffffffffffffff1673ffffffffffffffffffffffffffffffffffffffff168152602001908152602001600020819055507fa2db52a45d71264723caeac03c235d51bb30cff5e1ac71c97a5842ec94fbb6af6040518080602001828103825260208152602001807f526566756e6420646964206e6f742073656e64207375636365737366756c6c7981525060200191505060405180910390a1600091505b5090565b60008060066000015460035410156110ce57600080fd5b60035490506000600381905550600660030160009054906101000a900473ffffffffffffffffffffffffffffffffffffffff1673ffffffffffffffffffffffffffffffffffffffff166108fc829081150290604051600060405180830381858888f1935050505015611143576001915061114f565b80600381905550600091505b5090565b61115b6113d8565b6000806000806000806000806006600201600660000154600660010154600660030160009054906101000a900473ffffffffffffffffffffffffffffffffffffffff166003546004546005546000809054906101000a900473ffffffffffffffffffffffffffffffffffffffff1630888054600181600116156101000203166002900480601f01602080910402602001604051908101604052809291908181526020018280546001816001161561010002031660029004801561125f5780601f106112345761010080835404028352916020019161125f565b820191906000526020600020905b81548152906001019060200180831161124257829003601f168201915b50505050509850985098509850985098509850985098509850909192939495969798565b60055481565b600080600060026000858152602001908152602001600020905080600001548160010160009054906101000a900473ffffffffffffffffffffffffffffffffffffffff169250925050915091565b6000809054906101000a900473ffffffffffffffffffffffffffffffffffffffff1681565b6006806000015490806001015490806002018054600181600116156101000203166002900480601f0160208091040260200160405190810160405280929190818152602001828054600181600116156101000203166002900480156113a25780601f10611377576101008083540402835291602001916113a2565b820191906000526020600020905b81548152906001019060200180831161138557829003601f168201915b5050505050908060030160009054906101000a900473ffffffffffffffffffffffffffffffffffffffff16905084565b60035481565b6020604051908101604052806000815250905600a165627a7a72305820350dff73719bf5a5a444dc9a54c8a6b09d67530da061ac2f16604804ec1b60020029",
  "source": "pragma solidity ^0.4.4;\n\ncontract Project {\n\n    struct Properties {\n        uint goal;\n        uint deadline;\n        string title;\n        address creator;\n    }\n\n    struct Contribution {\n        uint amount;\n        address contributor;\n    }\n\n    address public fundingHub;\n\n    mapping (address => uint) public contributors;\n    mapping (uint => Contribution) public contributions;\n\n    uint public totalFunding;\n    uint public contributionsCount;\n    uint public contributorsCount;\n\n    Properties public properties;\n\n    event LogContributionReceived(address projectAddress, address contributor, uint amount);\n    event LogPayoutInitiated(address projectAddress, address owner, uint totalPayout);\n    event LogRefundIssued(address projectAddress, address contributor, uint refundAmount);\n    event LogFundingGoalReached(address projectAddress, uint totalFunding, uint totalContributions);\n    event LogFundingFailed(address projectAddress, uint totalFunding, uint totalContributions);\n\n    event LogFailure(string message);\n\n    modifier onlyFundingHub {\n        if (fundingHub != msg.sender) throw;\n        _;\n    }\n\n    modifier onlyFunded {\n        if (totalFunding < properties.goal) {\n            throw;\n        }\n        _;\n    }\n\n    function Project(uint _fundingGoal, uint _deadline, string _title, address _creator) {\n\n        // Check to see the funding goal is greater than 0\n        if (_fundingGoal <= 0) {\n            LogFailure(\"Project funding goal must be greater than 0\");\n            throw;\n        }\n\n        // Check to see the deadline is in the future\n        if (block.number >= _deadline) {\n            LogFailure(\"Project deadline must be greater than the current block\");\n            throw;\n        }\n\n        // Check to see that a creator (payout) address is valid\n        if (_creator == 0) {\n            LogFailure(\"Project must include a valid creator address\");\n            throw;\n        }\n\n        fundingHub = msg.sender;\n\n        // initialize properties struct\n        properties = Properties({\n            goal: _fundingGoal,\n            deadline: _deadline,\n            title: _title,\n            creator: _creator\n        });\n\n        totalFunding = 0;\n        contributionsCount = 0;\n        contributorsCount = 0;\n    }\n\n    /**\n    * Project values are indexed in return value:\n    * [0] -> Project.properties.title\n    * [1] -> Project.properties.goal\n    * [2] -> Project.properties.deadline\n    * [3] -> Project.properties.creator\n    * [4] -> Project.totalFunding\n    * [5] -> Project.contributionsCount\n    * [6] -> Project.contributorsCount\n    * [7] -> Project.fundingHub\n    * [8] -> Project (address)\n    */\n    function getProject() returns (string, uint, uint, address, uint, uint, uint, address, address) {\n        return (properties.title,\n                properties.goal,\n                properties.deadline,\n                properties.creator,\n                totalFunding,\n                contributionsCount,\n                contributorsCount,\n                fundingHub,\n                address(this));\n    }\n\n    /**\n    * Retrieve indiviual contribution information\n    * [0] -> Contribution.amount\n    * [1] -> Contribution.contributor\n    */\n    function getContribution(uint _id) returns (uint, address) {\n        Contribution c = contributions[_id];\n        return (c.amount, c.contributor);\n    }\n\n    /**\n    * This is the function called when the FundingHub receives a contribution. \n    * If the contribution was sent after the deadline of the project passed, \n    * or the full amount has been reached, the function must return the value \n    * to the originator of the transaction. \n    * If the full funding amount has been reached, the function must call payout. \n    * [0] -> contribution was made\n    */\n    function fund(address _contributor) payable returns (bool successful) {\n\n        // Check amount is greater than 0\n        if (msg.value <= 0) {\n            LogFailure(\"Funding contributions must be greater than 0 wei\");\n            throw;\n        }\n\n        // Check funding only comes thru fundingHub\n        if (msg.sender != fundingHub) {\n            LogFailure(\"Funding contributions can only be made through FundingHub contract\");\n            throw;\n        }\n\n        // 1. Check that the project dealine has not passed\n        if (block.number > properties.deadline) {\n            LogFundingFailed(address(this), totalFunding, contributionsCount);\n            if (!_contributor.send(msg.value)) {\n                LogFailure(\"Project deadline has passed, problem returning contribution\");\n                throw;\n\t\t//return false;\n            } \n            return false;\n        }\n\n        // 2. Check that funding goal has not already been met\n        if (totalFunding >= properties.goal) {\n            LogFundingGoalReached(address(this), totalFunding, contributionsCount);\n            if (!_contributor.send(msg.value)) {\n                LogFailure(\"Project deadline has passed, problem returning contribution\");\n                throw;\n\t\t//return false;\n            }\n            payout();\n            return false;\n        }\n\n        // determine if this is a new contributor\n        uint prevContributionBalance = contributors[_contributor];\n\n        // Add contribution to contributions map\n        Contribution c = contributions[contributionsCount];\n        c.contributor = _contributor;\n        c.amount = msg.value;\n\n        // Update contributor's balance\n        contributors[_contributor] += msg.value;\n\n        totalFunding += msg.value;\n        contributionsCount++;\n\n        // Check if contributor is new and if so increase count\n        if (prevContributionBalance == 0) {\n            contributorsCount++;\n        }\n\n        LogContributionReceived(this, _contributor, msg.value);\n\n        // Check again to see whether the last contribution met the fundingGoal \n        if (totalFunding >= properties.goal) {\n            LogFundingGoalReached(address(this), totalFunding, contributionsCount);\n            payout();\n        }\n\n        return true;\n    }\n\n    /**\n    * If funding goal has been met, transfer fund to project creator\n    * [0] -> payout was successful\n    */\n    function payout() payable onlyFunded returns (bool successful) {\n        uint amount = totalFunding;\n\n        // prevent re-entrancy\n        totalFunding = 0;\n\n        if (properties.creator.send(amount)) {\n            return true;\n        } else {\n            totalFunding = amount;\n            return false;\n        }\n\n        return true;\n    }\n\n    /**\n    * If the deadline is passed and the goal was not reached, allow contributors to withdraw their contributions.\n    * This is slightly different that the final project requirements, see README for details\n    * [0] -> refund was successful\n    */\n    function refund() payable returns (bool successful) {\n\n        // Check that the project dealine has passed\n        if (block.number < properties.deadline) {\n            LogFailure(\"Refund is only possible if project is past deadline\");\n            throw;\n        }\n\n        // Check that funding goal has not already been met\n        if (totalFunding >= properties.goal) {\n            LogFailure(\"Refund is not possible if project has met goal\");\n            throw;\n        }\n\n        uint amount = contributors[msg.sender];\n        \n        //prevent re-entrancy attack\n        contributors[msg.sender] = 0;\n\n        if (msg.sender.send(amount)) {\n            LogRefundIssued(address(this), msg.sender, amount);\n            return true;\n        } else {\n            contributors[msg.sender] = amount;\n            LogFailure(\"Refund did not send successfully\");\n            return false;\n        }\n        return true;\n    }\n\n    function kill() public onlyFundingHub {\n        selfdestruct(fundingHub);\n    }\n\n    /** \n    * Don't allow Ether to be sent blindly to this contract\n    */\n    function() {\n        throw;\n    }\n}\n",
  "sourcePath": "/home/akshyan/fundup3/contracts/Project.sol",
  "compiler": {
    "name": "solc",
    "version": "0.4.21+commit.dfe3193c.Emscripten.clang"
  },
  "schemaVersion": "2.0.0",
  "updatedAt": "2018-04-12T20:10:57.276Z"
}